{
  "_format": "hh-sol-artifact-1",
  "contractName": "MyEpicNFT",
  "sourceName": "contracts/MyEpicNFT.sol",
  "abi": [
    {
      "inputs": [],
      "stateMutability": "nonpayable",
      "type": "constructor"
    },
    {
      "anonymous": false,
      "inputs": [
        {
          "indexed": true,
          "internalType": "address",
          "name": "owner",
          "type": "address"
        },
        {
          "indexed": true,
          "internalType": "address",
          "name": "approved",
          "type": "address"
        },
        {
          "indexed": true,
          "internalType": "uint256",
          "name": "tokenId",
          "type": "uint256"
        }
      ],
      "name": "Approval",
      "type": "event"
    },
    {
      "anonymous": false,
      "inputs": [
        {
          "indexed": true,
          "internalType": "address",
          "name": "owner",
          "type": "address"
        },
        {
          "indexed": true,
          "internalType": "address",
          "name": "operator",
          "type": "address"
        },
        {
          "indexed": false,
          "internalType": "bool",
          "name": "approved",
          "type": "bool"
        }
      ],
      "name": "ApprovalForAll",
      "type": "event"
    },
    {
      "anonymous": false,
      "inputs": [
        {
          "indexed": false,
          "internalType": "address",
          "name": "sender",
          "type": "address"
        },
        {
          "indexed": false,
          "internalType": "uint256",
          "name": "tokenId",
          "type": "uint256"
        }
      ],
      "name": "NewEpicNFTMinted",
      "type": "event"
    },
    {
      "anonymous": false,
      "inputs": [
        {
          "indexed": true,
          "internalType": "address",
          "name": "from",
          "type": "address"
        },
        {
          "indexed": true,
          "internalType": "address",
          "name": "to",
          "type": "address"
        },
        {
          "indexed": true,
          "internalType": "uint256",
          "name": "tokenId",
          "type": "uint256"
        }
      ],
      "name": "Transfer",
      "type": "event"
    },
    {
      "inputs": [
        {
          "internalType": "address",
          "name": "to",
          "type": "address"
        },
        {
          "internalType": "uint256",
          "name": "tokenId",
          "type": "uint256"
        }
      ],
      "name": "approve",
      "outputs": [],
      "stateMutability": "nonpayable",
      "type": "function"
    },
    {
      "inputs": [
        {
          "internalType": "address",
          "name": "owner",
          "type": "address"
        }
      ],
      "name": "balanceOf",
      "outputs": [
        {
          "internalType": "uint256",
          "name": "",
          "type": "uint256"
        }
      ],
      "stateMutability": "view",
      "type": "function"
    },
    {
      "inputs": [
        {
          "internalType": "uint256",
          "name": "tokenId",
          "type": "uint256"
        }
      ],
      "name": "getApproved",
      "outputs": [
        {
          "internalType": "address",
          "name": "",
          "type": "address"
        }
      ],
      "stateMutability": "view",
      "type": "function"
    },
    {
      "inputs": [],
      "name": "getTotalNFTsMinted",
      "outputs": [
        {
          "internalType": "uint256",
          "name": "",
          "type": "uint256"
        }
      ],
      "stateMutability": "view",
      "type": "function"
    },
    {
      "inputs": [
        {
          "internalType": "address",
          "name": "owner",
          "type": "address"
        },
        {
          "internalType": "address",
          "name": "operator",
          "type": "address"
        }
      ],
      "name": "isApprovedForAll",
      "outputs": [
        {
          "internalType": "bool",
          "name": "",
          "type": "bool"
        }
      ],
      "stateMutability": "view",
      "type": "function"
    },
    {
      "inputs": [],
      "name": "makeAnEpicNFT",
      "outputs": [],
      "stateMutability": "nonpayable",
      "type": "function"
    },
    {
      "inputs": [],
      "name": "name",
      "outputs": [
        {
          "internalType": "string",
          "name": "",
          "type": "string"
        }
      ],
      "stateMutability": "view",
      "type": "function"
    },
    {
      "inputs": [
        {
          "internalType": "uint256",
          "name": "tokenId",
          "type": "uint256"
        }
      ],
      "name": "ownerOf",
      "outputs": [
        {
          "internalType": "address",
          "name": "",
          "type": "address"
        }
      ],
      "stateMutability": "view",
      "type": "function"
    },
    {
      "inputs": [
        {
          "internalType": "uint256",
          "name": "tokenId",
          "type": "uint256"
        }
      ],
      "name": "pickRandomColor",
      "outputs": [
        {
          "internalType": "string",
          "name": "",
          "type": "string"
        }
      ],
      "stateMutability": "view",
      "type": "function"
    },
    {
      "inputs": [
        {
          "internalType": "uint256",
          "name": "tokenId",
          "type": "uint256"
        }
      ],
      "name": "pickRandomFirstWord",
      "outputs": [
        {
          "internalType": "string",
          "name": "",
          "type": "string"
        }
      ],
      "stateMutability": "view",
      "type": "function"
    },
    {
      "inputs": [
        {
          "internalType": "uint256",
          "name": "tokenId",
          "type": "uint256"
        }
      ],
      "name": "pickRandomSecondWord",
      "outputs": [
        {
          "internalType": "string",
          "name": "",
          "type": "string"
        }
      ],
      "stateMutability": "view",
      "type": "function"
    },
    {
      "inputs": [
        {
          "internalType": "uint256",
          "name": "tokenId",
          "type": "uint256"
        }
      ],
      "name": "pickRandomThirdWord",
      "outputs": [
        {
          "internalType": "string",
          "name": "",
          "type": "string"
        }
      ],
      "stateMutability": "view",
      "type": "function"
    },
    {
      "inputs": [
        {
          "internalType": "address",
          "name": "from",
          "type": "address"
        },
        {
          "internalType": "address",
          "name": "to",
          "type": "address"
        },
        {
          "internalType": "uint256",
          "name": "tokenId",
          "type": "uint256"
        }
      ],
      "name": "safeTransferFrom",
      "outputs": [],
      "stateMutability": "nonpayable",
      "type": "function"
    },
    {
      "inputs": [
        {
          "internalType": "address",
          "name": "from",
          "type": "address"
        },
        {
          "internalType": "address",
          "name": "to",
          "type": "address"
        },
        {
          "internalType": "uint256",
          "name": "tokenId",
          "type": "uint256"
        },
        {
          "internalType": "bytes",
          "name": "data",
          "type": "bytes"
        }
      ],
      "name": "safeTransferFrom",
      "outputs": [],
      "stateMutability": "nonpayable",
      "type": "function"
    },
    {
      "inputs": [
        {
          "internalType": "address",
          "name": "operator",
          "type": "address"
        },
        {
          "internalType": "bool",
          "name": "approved",
          "type": "bool"
        }
      ],
      "name": "setApprovalForAll",
      "outputs": [],
      "stateMutability": "nonpayable",
      "type": "function"
    },
    {
      "inputs": [
        {
          "internalType": "bytes4",
          "name": "interfaceId",
          "type": "bytes4"
        }
      ],
      "name": "supportsInterface",
      "outputs": [
        {
          "internalType": "bool",
          "name": "",
          "type": "bool"
        }
      ],
      "stateMutability": "view",
      "type": "function"
    },
    {
      "inputs": [],
      "name": "symbol",
      "outputs": [
        {
          "internalType": "string",
          "name": "",
          "type": "string"
        }
      ],
      "stateMutability": "view",
      "type": "function"
    },
    {
      "inputs": [
        {
          "internalType": "uint256",
          "name": "tokenId",
          "type": "uint256"
        }
      ],
      "name": "tokenURI",
      "outputs": [
        {
          "internalType": "string",
          "name": "",
          "type": "string"
        }
      ],
      "stateMutability": "view",
      "type": "function"
    },
    {
      "inputs": [
        {
          "internalType": "address",
          "name": "from",
          "type": "address"
        },
        {
          "internalType": "address",
          "name": "to",
          "type": "address"
        },
        {
          "internalType": "uint256",
          "name": "tokenId",
          "type": "uint256"
        }
      ],
      "name": "transferFrom",
      "outputs": [],
      "stateMutability": "nonpayable",
      "type": "function"
    }
  ],
  "bytecode": "0x6032600855600060095561018060405260d36080818152906200278560a03980516200003491600a916020909101906200055f565b50604051806080016040528060568152602001620028586056913980516200006591600b916020909101906200055f565b506040518060c001604052806040518060400160405280600581526020016448656c6c6f60d81b815250815260200160405180604001604052806007815260200166476f6f6462796560c81b815250815260200160405180604001604052806003815260200162484f5760e81b8152508152602001604051806040016040528060038152602001622baa2360e91b81525081526020016040518060400160405280600381526020016257485960e81b81525081526020016040518060400160405280600681526020016521b7b6b6b7b760d11b815250815250600c90600662000150929190620005ee565b506040518060c00160405280604051806040016040528060058152602001644f6e54686560d81b815250815260200160405180604001604052806009815260200168457665727954696d6560b81b8152508152602001604051806040016040528060088152602001674265666f72654d6560c01b815250815260200160405180604001604052806008815260200167416e797468696e6760c01b8152508152602001604051806040016040528060098152602001684576657279626f647960b81b8152508152602001604051806040016040528060068152602001654c6974746c6560d01b815250815250600d9060066200024d929190620005ee565b506040805161010081018252600660c0820181815265547269636b7960d01b60e0840152825282518084018452600881526713995dd5dbdc9b1960c21b6020828101919091528084019190915283518085018552600b81526a5573656c6573734475646560a81b818301528385015283518085018552600d81526c416d617a696e675468696e677360981b81830152606084015283518085018552600c81526b23b932b0ba2a32b0b1b432b960a11b8183015260808401528351808501909452600784526653414e474f4b5560c81b9084015260a08201929092526200033791600e9190620005ee565b506040518060c00160405280604051806040016040528060038152602001621c995960ea1b8152508152602001604051806040016040528060078152602001660466070866482760cb1b815250815260200160405180604001604052806005815260200164626c61636b60d81b81525081526020016040518060400160405280600681526020016579656c6c6f7760d01b815250815260200160405180604001604052806004815260200163626c756560e01b81525081526020016040518060400160405280600581526020016433b932b2b760d91b815250815250600f90600662000425929190620005ee565b503480156200043357600080fd5b50604080518082018252600d81526c15dbdc9b19195e09dcc8139195609a1b6020808301918252835180850190945260058452640aea48898b60db1b90840152815191929162000486916000916200055f565b5080516200049c9060019060208401906200055f565b505050620004ea6040518060400160405280601e81526020017f54686973206973206d79204e465420636f6e74726163742e20576f6168210000815250620004f060201b62000bcd1760201c565b6200075a565b6200053b81604051602401620005079190620006c5565b60408051601f198184030181529190526020810180516001600160e01b0390811663104c13eb60e21b179091526200053e16565b50565b80516a636f6e736f6c652e6c6f67602083016000808483855afa5050505050565b8280546200056d906200071d565b90600052602060002090601f016020900481019282620005915760008555620005dc565b82601f10620005ac57805160ff1916838001178555620005dc565b82800160010185558215620005dc579182015b82811115620005dc578251825591602001919060010190620005bf565b50620005ea9291506200064e565b5090565b82805482825590600052602060002090810192821562000640579160200282015b828111156200064057825180516200062f9184916020909101906200055f565b50916020019190600101906200060f565b50620005ea92915062000665565b5b80821115620005ea57600081556001016200064f565b80821115620005ea5760006200067c828262000686565b5060010162000665565b50805462000694906200071d565b6000825580601f10620006a5575050565b601f0160209004906000526020600020908101906200053b91906200064e565b600060208083528351808285015260005b81811015620006f457858101830151858201604001528201620006d6565b8181111562000707576000604083870101525b50601f01601f1916929092016040019392505050565b600181811c908216806200073257607f821691505b602082108114156200075457634e487b7160e01b600052602260045260246000fd5b50919050565b61201b806200076a6000396000f3fe608060405234801561001057600080fd5b50600436106101215760003560e01c806370a08231116100ad578063b88d4fde11610071578063b88d4fde14610259578063c575757a1461026c578063c87b56dd1461027f578063de9d132f14610292578063e985e9c51461029a57600080fd5b806370a082311461020257806395d89b4114610223578063a22cb4651461022b578063b187301f1461023e578063b4c3b8be1461025157600080fd5b806323b872dd116100f457806323b872dd146101a35780632de38d68146101b657806342842e0e146101c9578063514dc8c6146101dc5780636352211e146101ef57600080fd5b806301ffc9a71461012657806306fdde031461014e578063081812fc14610163578063095ea7b31461018e575b600080fd5b61013961013436600461174e565b6102d6565b60405190151581526020015b60405180910390f35b610156610328565b60405161014591906117c3565b6101766101713660046117d6565b6103ba565b6040516001600160a01b039091168152602001610145565b6101a161019c36600461180b565b6103e1565b005b6101a16101b1366004611835565b6104fc565b6101566101c43660046117d6565b61052d565b6101a16101d7366004611835565b610621565b6101566101ea3660046117d6565b61063c565b6101766101fd3660046117d6565b610681565b610215610210366004611871565b6106e1565b604051908152602001610145565b610156610767565b6101a161023936600461188c565b610776565b61015661024c3660046117d6565b610785565b600954610215565b6101a16102673660046118de565b6107ca565b61015661027a3660046117d6565b610802565b61015661028d3660046117d6565b610847565b6101a1610958565b6101396102a83660046119ba565b6001600160a01b03918216600090815260056020908152604080832093909416825291909152205460ff1690565b60006001600160e01b031982166380ac58cd60e01b148061030757506001600160e01b03198216635b5e139f60e01b145b8061032257506301ffc9a760e01b6001600160e01b03198316145b92915050565b606060008054610337906119ed565b80601f0160208091040260200160405190810160405280929190818152602001828054610363906119ed565b80156103b05780601f10610385576101008083540402835291602001916103b0565b820191906000526020600020905b81548152906001019060200180831161039357829003601f168201915b5050505050905090565b60006103c582610c13565b506000908152600460205260409020546001600160a01b031690565b60006103ec82610681565b9050806001600160a01b0316836001600160a01b0316141561045f5760405162461bcd60e51b815260206004820152602160248201527f4552433732313a20617070726f76616c20746f2063757272656e74206f776e656044820152603960f91b60648201526084015b60405180910390fd5b336001600160a01b038216148061047b575061047b81336102a8565b6104ed5760405162461bcd60e51b815260206004820152603e60248201527f4552433732313a20617070726f76652063616c6c6572206973206e6f7420746f60448201527f6b656e206f776e6572206e6f7220617070726f76656420666f7220616c6c00006064820152608401610456565b6104f78383610c72565b505050565b6105063382610ce0565b6105225760405162461bcd60e51b815260040161045690611a28565b6104f7838383610d5e565b6060600061056161053d84610efa565b60405160200161054d9190611a76565b604051602081830303815290604052610ff8565b600c549091506105719082611abe565b9050600c818154811061058657610586611ad2565b90600052602060002001805461059b906119ed565b80601f01602080910402602001604051908101604052809291908181526020018280546105c7906119ed565b80156106145780601f106105e957610100808354040283529160200191610614565b820191906000526020600020905b8154815290600101906020018083116105f757829003601f168201915b5050505050915050919050565b6104f7838383604051806020016040528060008152506107ca565b6060600061065c61064c84610efa565b60405160200161054d9190611ae8565b600f5490915061066c9082611abe565b9050600f818154811061058657610586611ad2565b6000818152600260205260408120546001600160a01b0316806103225760405162461bcd60e51b8152602060048201526018602482015277115490cdcc8c4e881a5b9d985b1a59081d1bdad95b88125160421b6044820152606401610456565b60006001600160a01b03821661074b5760405162461bcd60e51b815260206004820152602960248201527f4552433732313a2061646472657373207a65726f206973206e6f7420612076616044820152683634b21037bbb732b960b91b6064820152608401610456565b506001600160a01b031660009081526003602052604090205490565b606060018054610337906119ed565b610781338383611029565b5050565b606060006107a561079584610efa565b60405160200161054d9190611b15565b600d549091506107b59082611abe565b9050600d818154811061058657610586611ad2565b6107d43383610ce0565b6107f05760405162461bcd60e51b815260040161045690611a28565b6107fc848484846110f8565b50505050565b6060600061082261081284610efa565b60405160200161054d9190611b48565b600e549091506108329082611abe565b9050600e818154811061058657610586611ad2565b606061085282610c13565b6000828152600660205260408120805461086b906119ed565b80601f0160208091040260200160405190810160405280929190818152602001828054610897906119ed565b80156108e45780601f106108b9576101008083540402835291602001916108e4565b820191906000526020600020905b8154815290600101906020018083116108c757829003601f168201915b50505050509050600061090260408051602081019091526000815290565b9050805160001415610915575092915050565b81511561094757808260405160200161092f929190611b6d565b60405160208183030381529060405292505050919050565b6109508461112b565b949350505050565b60085460095411156109d25760405162461bcd60e51b815260206004820152603760248201527f596f752063616e2774206d696e7420616e796d6f7265204e46542120546f746160448201527f6c20737570706c7920686173206265656e2072656163680000000000000000006064820152608401610456565b60006109dd60075490565b905060006109ea8261052d565b905060006109f783610785565b90506000610a0484610802565b90506000838383604051602001610a1d93929190611b9c565b60405160208183030381529060405290506000610a398661063c565b90506000600a82600b85604051602001610a569493929190611c79565b60405160208183030381529060405290506000610a9b84610a768461119f565b604051602001610a87929190611cd7565b60405160208183030381529060405261119f565b9050600081604051602001610ab09190611dad565b60408051601f1981840301815282820190915260158252740a2d2d2d2d2d2d2d2d2d2d2d2d2d2d2d2d2d2d2d2d60581b60208301529150610af090610bcd565b610af981610bcd565b610b2f6040518060400160405280601581526020017416969696969696969696969696969696969696968560591b815250610bcd565b610b39338a611305565b610b43898261131f565b610b51600780546001019055565b610b74604051806060016040528060258152602001611f81602591398a336113b9565b60408051338152602081018b90527febb98688741ffa4c7589bf325de30cf7becb63de567842e1ccdb6cb949fdc82c910160405180910390a160098054906000610bbd83611e08565b9190505550505050505050505050565b610c1081604051602401610be191906117c3565b60408051601f198184030181529190526020810180516001600160e01b031663104c13eb60e21b1790526113fc565b50565b6000818152600260205260409020546001600160a01b0316610c105760405162461bcd60e51b8152602060048201526018602482015277115490cdcc8c4e881a5b9d985b1a59081d1bdad95b88125160421b6044820152606401610456565b600081815260046020526040902080546001600160a01b0319166001600160a01b0384169081179091558190610ca782610681565b6001600160a01b03167f8c5be1e5ebec7d5bd14f71427d1e84f3dd0314c0f7b2291e5b200ac8c7c3b92560405160405180910390a45050565b600080610cec83610681565b9050806001600160a01b0316846001600160a01b03161480610d3357506001600160a01b0380821660009081526005602090815260408083209388168352929052205460ff165b806109505750836001600160a01b0316610d4c846103ba565b6001600160a01b031614949350505050565b826001600160a01b0316610d7182610681565b6001600160a01b031614610dd55760405162461bcd60e51b815260206004820152602560248201527f4552433732313a207472616e736665722066726f6d20696e636f72726563742060448201526437bbb732b960d91b6064820152608401610456565b6001600160a01b038216610e375760405162461bcd60e51b8152602060048201526024808201527f4552433732313a207472616e7366657220746f20746865207a65726f206164646044820152637265737360e01b6064820152608401610456565b610e42600082610c72565b6001600160a01b0383166000908152600360205260408120805460019290610e6b908490611e23565b90915550506001600160a01b0382166000908152600360205260408120805460019290610e99908490611e3a565b909155505060008181526002602052604080822080546001600160a01b0319166001600160a01b0386811691821790925591518493918716917fddf252ad1be2c89b69c2b068fc378daa952ba7f163c4a11628f55a4df523b3ef91a4505050565b606081610f1e5750506040805180820190915260018152600360fc1b602082015290565b8160005b8115610f485780610f3281611e08565b9150610f419050600a83611e52565b9150610f22565b60008167ffffffffffffffff811115610f6357610f636118c8565b6040519080825280601f01601f191660200182016040528015610f8d576020820181803683370190505b5090505b841561095057610fa2600183611e23565b9150610faf600a86611abe565b610fba906030611e3a565b60f81b818381518110610fcf57610fcf611ad2565b60200101906001600160f81b031916908160001a905350610ff1600a86611e52565b9450610f91565b60008160405160200161100b9190611e66565b60408051601f19818403018152919052805160209091012092915050565b816001600160a01b0316836001600160a01b0316141561108b5760405162461bcd60e51b815260206004820152601960248201527f4552433732313a20617070726f766520746f2063616c6c6572000000000000006044820152606401610456565b6001600160a01b03838116600081815260056020908152604080832094871680845294825291829020805460ff191686151590811790915591519182527f17307eab39ab6107e8899845ad3d59bd9653f200f220920489ca2b5937696c31910160405180910390a3505050565b611103848484610d5e565b61110f8484848461141d565b6107fc5760405162461bcd60e51b815260040161045690611e82565b606061113682610c13565b600061114d60408051602081019091526000815290565b9050600081511161116d5760405180602001604052806000815250611198565b8061117784610efa565b604051602001611188929190611b6d565b6040516020818303038152906040525b9392505050565b8051606090806111bf575050604080516020810190915260008152919050565b600060036111ce836002611e3a565b6111d89190611e52565b6111e3906004611ed4565b905060006111f2826020611e3a565b67ffffffffffffffff81111561120a5761120a6118c8565b6040519080825280601f01601f191660200182016040528015611234576020820181803683370190505b5090506000604051806060016040528060408152602001611fa6604091399050600181016020830160005b868110156112c0576003818a01810151603f601282901c8116860151600c83901c8216870151600684901c831688015192909316870151600891821b60ff94851601821b92841692909201901b91160160e01b83526004909201910161125f565b5060038606600181146112da57600281146112eb576112f7565b613d3d60f01b6001198301526112f7565b603d60f81b6000198301525b505050918152949350505050565b61078182826040518060200160405280600081525061152a565b6000828152600260205260409020546001600160a01b031661139a5760405162461bcd60e51b815260206004820152602e60248201527f45524337323155524953746f726167653a2055524920736574206f66206e6f6e60448201526d32bc34b9ba32b73a103a37b5b2b760911b6064820152608401610456565b600082815260066020908152604090912082516104f79284019061169f565b6104f78383836040516024016113d193929190611ef3565b60408051601f198184030181529190526020810180516001600160e01b031663038fd88960e31b1790525b80516a636f6e736f6c652e6c6f67602083016000808483855afa5050505050565b60006001600160a01b0384163b1561151f57604051630a85bd0160e11b81526001600160a01b0385169063150b7a0290611461903390899088908890600401611f26565b602060405180830381600087803b15801561147b57600080fd5b505af19250505080156114ab575060408051601f3d908101601f191682019092526114a891810190611f63565b60015b611505573d8080156114d9576040519150601f19603f3d011682016040523d82523d6000602084013e6114de565b606091505b5080516114fd5760405162461bcd60e51b815260040161045690611e82565b805181602001fd5b6001600160e01b031916630a85bd0160e11b149050610950565b506001949350505050565b611534838361155d565b611541600084848461141d565b6104f75760405162461bcd60e51b815260040161045690611e82565b6001600160a01b0382166115b35760405162461bcd60e51b815260206004820181905260248201527f4552433732313a206d696e7420746f20746865207a65726f20616464726573736044820152606401610456565b6000818152600260205260409020546001600160a01b0316156116185760405162461bcd60e51b815260206004820152601c60248201527f4552433732313a20746f6b656e20616c7265616479206d696e746564000000006044820152606401610456565b6001600160a01b0382166000908152600360205260408120805460019290611641908490611e3a565b909155505060008181526002602052604080822080546001600160a01b0319166001600160a01b03861690811790915590518392907fddf252ad1be2c89b69c2b068fc378daa952ba7f163c4a11628f55a4df523b3ef908290a45050565b8280546116ab906119ed565b90600052602060002090601f0160209004810192826116cd5760008555611713565b82601f106116e657805160ff1916838001178555611713565b82800160010185558215611713579182015b828111156117135782518255916020019190600101906116f8565b5061171f929150611723565b5090565b5b8082111561171f5760008155600101611724565b6001600160e01b031981168114610c1057600080fd5b60006020828403121561176057600080fd5b813561119881611738565b60005b8381101561178657818101518382015260200161176e565b838111156107fc5750506000910152565b600081518084526117af81602086016020860161176b565b601f01601f19169290920160200192915050565b6020815260006111986020830184611797565b6000602082840312156117e857600080fd5b5035919050565b80356001600160a01b038116811461180657600080fd5b919050565b6000806040838503121561181e57600080fd5b611827836117ef565b946020939093013593505050565b60008060006060848603121561184a57600080fd5b611853846117ef565b9250611861602085016117ef565b9150604084013590509250925092565b60006020828403121561188357600080fd5b611198826117ef565b6000806040838503121561189f57600080fd5b6118a8836117ef565b9150602083013580151581146118bd57600080fd5b809150509250929050565b634e487b7160e01b600052604160045260246000fd5b600080600080608085870312156118f457600080fd5b6118fd856117ef565b935061190b602086016117ef565b925060408501359150606085013567ffffffffffffffff8082111561192f57600080fd5b818701915087601f83011261194357600080fd5b813581811115611955576119556118c8565b604051601f8201601f19908116603f0116810190838211818310171561197d5761197d6118c8565b816040528281528a602084870101111561199657600080fd5b82602086016020830137600060208483010152809550505050505092959194509250565b600080604083850312156119cd57600080fd5b6119d6836117ef565b91506119e4602084016117ef565b90509250929050565b600181811c90821680611a0157607f821691505b60208210811415611a2257634e487b7160e01b600052602260045260246000fd5b50919050565b6020808252602e908201527f4552433732313a2063616c6c6572206973206e6f7420746f6b656e206f776e6560408201526d1c881b9bdc88185c1c1c9bdd995960921b606082015260800190565b6911925494d517d5d3d49160b21b815260008251611a9b81600a85016020870161176b565b91909101600a0192915050565b634e487b7160e01b600052601260045260246000fd5b600082611acd57611acd611aa8565b500690565b634e487b7160e01b600052603260045260246000fd5b6421a7a627a960d91b815260008251611b0881600585016020870161176b565b9190910160050192915050565b6a14d150d3d39117d5d3d49160aa1b815260008251611b3b81600b85016020870161176b565b91909101600b0192915050565b69151212549117d5d3d49160b21b815260008251611a9b81600a85016020870161176b565b60008351611b7f81846020880161176b565b835190830190611b9381836020880161176b565b01949350505050565b60008451611bae81846020890161176b565b845190830190611bc281836020890161176b565b8451910190611bd581836020880161176b565b0195945050505050565b8054600090600181811c9080831680611bf957607f831692505b6020808410821415611c1b57634e487b7160e01b600052602260045260246000fd5b818015611c2f5760018114611c4057611c6d565b60ff19861689528489019650611c6d565b60008881526020902060005b86811015611c655781548b820152908501908301611c4c565b505084890196505b50505050505092915050565b6000611c858287611bdf565b8551611c95818360208a0161176b565b611ca181830187611bdf565b9150508351611cb481836020880161176b565b6c1e17ba32bc3a1f1e17b9bb339f60991b9101908152600d019695505050505050565b693d913730b6b2911d101160b11b81528251600090611cfd81600a85016020880161176b565b7f222c20226465736372697074696f6e223a20224120686967686c79206163636c600a918401918201527f61696d656420636f6c6c656374696f6e206f6620737175617265732e222c2022602a8201527f696d616765223a2022646174613a696d6167652f7376672b786d6c3b62617365604a820152620d8d0b60ea1b606a8201528351611d9281606d84016020880161176b565b61227d60f01b606d9290910191820152606f01949350505050565b7f646174613a6170706c69636174696f6e2f6a736f6e3b6261736536342c000000815260008251611de581601d85016020870161176b565b91909101601d0192915050565b634e487b7160e01b600052601160045260246000fd5b6000600019821415611e1c57611e1c611df2565b5060010190565b600082821015611e3557611e35611df2565b500390565b60008219821115611e4d57611e4d611df2565b500190565b600082611e6157611e61611aa8565b500490565b60008251611e7881846020870161176b565b9190910192915050565b60208082526032908201527f4552433732313a207472616e7366657220746f206e6f6e20455243373231526560408201527131b2b4bb32b91034b6b83632b6b2b73a32b960711b606082015260800190565b6000816000190483118215151615611eee57611eee611df2565b500290565b606081526000611f066060830186611797565b6020830194909452506001600160a01b0391909116604090910152919050565b6001600160a01b0385811682528416602082015260408101839052608060608201819052600090611f5990830184611797565b9695505050505050565b600060208284031215611f7557600080fd5b81516111988161173856fe416e204e465420772f20494420257320686173206265656e206d696e74656420746f2025734142434445464748494a4b4c4d4e4f505152535455565758595a6162636465666768696a6b6c6d6e6f707172737475767778797a303132333435363738392b2fa2646970667358221220fcb696bb7a2c0bbe20caf10fc6690a39afd2702b76f85f02deef29193cbdf9e164736f6c634300080900333c73766720786d6c6e733d27687474703a2f2f7777772e77332e6f72672f323030302f73766727207072657365727665417370656374526174696f3d27784d696e594d696e206d656574272076696577426f783d273020302033353020333530273e3c7374796c653e2e62617365207b2066696c6c3a2077686974653b20666f6e742d66616d696c793a2073657269663b20666f6e742d73697a653a20323470783b207d3c2f7374796c653e3c726563742077696474683d273130302527206865696768743d2731303025272066696c6c3d27272f3e3c7465787420783d273530252720793d273530252720636c6173733d27626173652720646f6d696e616e742d626173656c696e653d276d6964646c652720746578742d616e63686f723d276d6964646c65273e",
  "linkReferences": {},
  "deployedLinkReferences": {}
}